:03000000020105F5
:0C010500787FE4F6D8FD7581200200F739
:100003005354433132433541363053320D0A55612F
:0C0013007274205465737420210D0A00E3
:06012B0012008902004BE6
:0E00E900EF1FAC0670011E4C60030080F32276
:09011100007F0B7EBEDEFEDFFC68
:01011A0022C2
:1000D500AD07AC06ED1DAE0470011C4E60051201A6
:0400E5001180F12273
:070124007FE87E030200D515
:0E00F70012012B7BFF7A00790312002680F5A0
:10004B00E4F5D8F5E9F5F975D90275EA8075FA800A
:10005B0075DA4275EBFF75FBFF75F30375DB42D267
:02006B00DE2293
:10006D005354433132433541363053320D0A5561C5
:0C007D007274205465737420210D0A0079
:10008900759850758920758BFD758DFDD28ED2AC12
:0B009900D2AF7BFF7A00796D020026D9
:030023000200BD1B
:1000BD00C0D0309809C298859980A29A92A23099A1
:0800CD0004C299C200D0D03238
:09011B002000FDEFD200F599224D
:100026008B088A09890AAB08AA09A90A1200A460E2
:1000360013050AE50A7002050914F91200A4FF1255
:05004600011B80E22215
:1000A400BB010689828A83E0225002E722BBFE025A
:0900B400E32289828A83E493228D
:00000001FF
